{"contractName":"PaymentRegistry","abi":[{"anonymous":false,"inputs":[{"indexed":false,"internalType":"string","name":"paymentId","type":"string"},{"indexed":false,"internalType":"uint256","name":"amount","type":"uint256"},{"indexed":false,"internalType":"string","name":"currency","type":"string"},{"indexed":false,"internalType":"uint256","name":"timestamp","type":"uint256"}],"name":"PaymentRegistered","type":"event"},{"inputs":[{"internalType":"string","name":"","type":"string"}],"name":"payments","outputs":[{"internalType":"string","name":"paymentId","type":"string"},{"internalType":"uint256","name":"amount","type":"uint256"},{"internalType":"string","name":"currency","type":"string"},{"internalType":"uint256","name":"timestamp","type":"uint256"}],"stateMutability":"view","type":"function","constant":true},{"inputs":[{"internalType":"string","name":"paymentId","type":"string"},{"internalType":"uint256","name":"amount","type":"uint256"},{"internalType":"string","name":"currency","type":"string"}],"name":"registerPayment","outputs":[],"stateMutability":"nonpayable","type":"function"},{"inputs":[{"internalType":"string","name":"paymentId","type":"string"}],"name":"getPayment","outputs":[{"components":[{"internalType":"string","name":"paymentId","type":"string"},{"internalType":"uint256","name":"amount","type":"uint256"},{"internalType":"string","name":"currency","type":"string"},{"internalType":"uint256","name":"timestamp","type":"uint256"}],"internalType":"struct PaymentRegistry.Payment","name":"","type":"tuple"}],"stateMutability":"view","type":"function","constant":true}],"bytecode":"0x608060405234801561001057600080fd5b506109f5806100206000396000f3fe608060405234801561001057600080fd5b50600436106100415760003560e01c80639974f0e314610046578063c69207a314610062578063f946871314610092575b600080fd5b610060600480360381019061005b91906105ec565b6100c5565b005b61007c600480360381019061007791906105ab565b61019d565b6040516100899190610800565b60405180910390f35b6100ac60048036038101906100a791906105ab565b61030d565b6040516100bc94939291906107ad565b60405180910390f35b60006040518060800160405280858152602001848152602001838152602001428152509050806000856040516100fb9190610796565b90815260200160405180910390206000820151816000019080519060200190610125929190610463565b5060208201518160010155604082015181600201908051906020019061014c929190610463565b50606082015181600301559050507f073bbb12db050edc3103a1ebcc3cd381aae1ab43dc0cc0b5c34f15dc4f7127e18484844260405161018f94939291906107ad565b60405180910390a150505050565b6101a56104e9565b6000826040516101b59190610796565b90815260200160405180910390206040518060800160405290816000820180546101de90610907565b80601f016020809104026020016040519081016040528092919081815260200182805461020a90610907565b80156102575780601f1061022c57610100808354040283529160200191610257565b820191906000526020600020905b81548152906001019060200180831161023a57829003601f168201915b505050505081526020016001820154815260200160028201805461027a90610907565b80601f01602080910402602001604051908101604052809291908181526020018280546102a690610907565b80156102f35780601f106102c8576101008083540402835291602001916102f3565b820191906000526020600020905b8154815290600101906020018083116102d657829003601f168201915b505050505081526020016003820154815250509050919050565b60008180516020810182018051848252602083016020850120818352809550505050505060009150905080600001805461034690610907565b80601f016020809104026020016040519081016040528092919081815260200182805461037290610907565b80156103bf5780601f10610394576101008083540402835291602001916103bf565b820191906000526020600020905b8154815290600101906020018083116103a257829003601f168201915b5050505050908060010154908060020180546103da90610907565b80601f016020809104026020016040519081016040528092919081815260200182805461040690610907565b80156104535780601f1061042857610100808354040283529160200191610453565b820191906000526020600020905b81548152906001019060200180831161043657829003601f168201915b5050505050908060030154905084565b82805461046f90610907565b90600052602060002090601f01602090048101928261049157600085556104d8565b82601f106104aa57805160ff19168380011785556104d8565b828001600101855582156104d8579182015b828111156104d75782518255916020019190600101906104bc565b5b5090506104e59190610511565b5090565b6040518060800160405280606081526020016000815260200160608152602001600081525090565b5b8082111561052a576000816000905550600101610512565b5090565b600061054161053c84610853565b610822565b90508281526020810184848401111561055957600080fd5b6105648482856108c5565b509392505050565b600082601f83011261057d57600080fd5b813561058d84826020860161052e565b91505092915050565b6000813590506105a5816109a8565b92915050565b6000602082840312156105bd57600080fd5b600082013567ffffffffffffffff8111156105d757600080fd5b6105e38482850161056c565b91505092915050565b60008060006060848603121561060157600080fd5b600084013567ffffffffffffffff81111561061b57600080fd5b6106278682870161056c565b935050602061063886828701610596565b925050604084013567ffffffffffffffff81111561065557600080fd5b6106618682870161056c565b9150509250925092565b600061067682610883565b610680818561088e565b93506106908185602086016108d4565b61069981610997565b840191505092915050565b60006106af82610883565b6106b9818561089f565b93506106c98185602086016108d4565b6106d281610997565b840191505092915050565b60006106e882610883565b6106f281856108b0565b93506107028185602086016108d4565b80840191505092915050565b6000608083016000830151848203600086015261072b828261066b565b91505060208301516107406020860182610778565b5060408301518482036040860152610758828261066b565b915050606083015161076d6060860182610778565b508091505092915050565b610781816108bb565b82525050565b610790816108bb565b82525050565b60006107a282846106dd565b915081905092915050565b600060808201905081810360008301526107c781876106a4565b90506107d66020830186610787565b81810360408301526107e881856106a4565b90506107f76060830184610787565b95945050505050565b6000602082019050818103600083015261081a818461070e565b905092915050565b6000604051905081810181811067ffffffffffffffff8211171561084957610848610968565b5b8060405250919050565b600067ffffffffffffffff82111561086e5761086d610968565b5b601f19601f8301169050602081019050919050565b600081519050919050565b600082825260208201905092915050565b600082825260208201905092915050565b600081905092915050565b6000819050919050565b82818337600083830152505050565b60005b838110156108f25780820151818401526020810190506108d7565b83811115610901576000848401525b50505050565b6000600282049050600182168061091f57607f821691505b6020821081141561093357610932610939565b5b50919050565b7f4e487b7100000000000000000000000000000000000000000000000000000000600052602260045260246000fd5b7f4e487b7100000000000000000000000000000000000000000000000000000000600052604160045260246000fd5b6000601f19601f8301169050919050565b6109b1816108bb565b81146109bc57600080fd5b5056fea26469706673582212206061c57d941f4d0f1b59fbe0211c031385beaa4bec63ba85f79f6971f318e4bc64736f6c63430008000033","immutableReferences":{},"source":"// SPDX-License-Identifier: MIT\npragma solidity ^0.8.0;\n\ncontract PaymentRegistry {\n    struct Payment {\n        string paymentId;\n        uint256 amount;\n        string currency;\n        uint256 timestamp;\n    }\n\n    mapping(string => Payment) public payments;\n\n    event PaymentRegistered(string paymentId, uint256 amount, string currency, uint256 timestamp);\n\n    function registerPayment(string memory paymentId, uint256 amount, string memory currency) public {\n        Payment memory payment = Payment({\n            paymentId: paymentId,\n            amount: amount,\n            currency: currency,\n            timestamp: block.timestamp\n        });\n\n        payments[paymentId] = payment;\n        emit PaymentRegistered(paymentId, amount, currency, block.timestamp);\n    }\n\n    function getPayment(string memory paymentId) public view returns (Payment memory) {\n        return payments[paymentId];\n    }\n}\n","sourcePath":"/Users/apple/proyect-solidity/contracts/PaymentRegistry.sol","compiler":{"name":"solc","version":"0.8.0+commit.c7dfd78e.Emscripten.clang"},"schemaVersion":"3.4.16","updatedAt":"2024-06-01T20:35:47.884Z","networkType":"ethereum","devdoc":{"kind":"dev","methods":{},"version":1},"userdoc":{"kind":"user","methods":{},"version":1}}